:100000000C9434000C9451000C9451000C94510049
:100010000C9451000C9451000C9451000C9451001C
:100020000C9451000C9451000C9451000C9451000C
:100030000C9451000C9451000C9451000C945100FC
:100040000C9451000C9451000C9451000C942E040B
:100050000C9478040C9451000C9451000C945100B1
:100060000C94E3000C94510011241FBECFEFD8E094
:10007000DEBFCDBF11E0A0E0B1E0E2E6FBE002C0F0
:1000800005900D92A832B107D9F721E0A8E2B1E0BE
:1000900001C01D92AD32B207E1F70E94F2010C944B
:1000A000AF050C940000CF93DF93CDB7DEB788EB9C
:1000B00090E028E7FC0120838CEB90E02CEB30E013
:1000C000F90120812E7FFC0120838CEB90E02CEB4A
:1000D00030E0F90120812B7FFC0120838CEB90E044
:1000E0002CEB30E0F90120812F7EFC0120838CEB8A
:1000F00090E02CEB30E0F90120812F7DFC01208382
:100100008CEB90E02CEB30E0F90120812064FC01C5
:1001100020838CEB90E02CEB30E0F90120812F77ED
:10012000FC01208389EB90E029EB30E0F90120818C
:100130002E7FFC01208389EB90E029EB30E0F90170
:1001400020812D7FFC0120838AEB90E02EEFFC01C3
:1001500020838AEB90E02AEB30E0F90120812E7FAA
:10016000FC0120838DEB90E0FC0110828CEB90E091
:100170002CEB30E0F90120812160FC0120838CEB25
:1001800090E02CEB30E0F90120812460FC01208319
:100190000000DF91CF910895CF93DF931F92CDB7E9
:1001A000DEB789838CEB90E02CEB30E0F901208105
:1001B0002062FC01208389818093000100000F9060
:1001C000DF91CF9108951F920F9200905F000F92E0
:1001D00011242F933F934F935F936F937F938F934C
:1001E0009F93AF93BF93EF93FF93CF93DF93CDB7DD
:1001F000DEB76197DEBFCDBF8BEB90E0FC01808165
:10020000885C888B198ACE0140960E940A0480E09F
:1002100090E0AAEFB4E48A839B83AC83BD8320E0A3
:1002200030E04AE755E46A817B818C819D810E94A0
:100230001105DC01CB018E839F83A887B98720E05D
:1002400030E040E85FE36E817F81888599850E9478
:100250008B0488232CF481E090E09B878A873FC041
:1002600020E03FEF4FE757E46E817F8188859985D5
:100270000E940C0518164CF520E030E040E251E4F5
:100280006A817B818C819D810E941105DC01CB01FB
:10029000BC01CD010E949004DC01CB019B878A87C1
:1002A0000FC080E991E09D878C878C859D850197A3
:1002B000F1F79D878C878A859B8501979B878A8725
:1002C0008A859B85892B69F714C06E817F8188851B
:1002D00099850E949004DC01CB019B878A878A85DF
:1002E0009B859F878E878E859F850197F1F79F87D6
:1002F0008E8789EB90E0FC018081883081F48BEB64
:1003000090E020910001220FFC0120838CEB90E013
:100310002CEB30E0F90120812068FC01208389EB7F
:1003200090E0FC018081883199F580912801882333
:1003300091F48BEB90E0FC0110828CEB90E02CEBC5
:1003400030E0F90120812068FC01208380912801A0
:100350008F5F80932801809128018130C9F48BEB55
:1003600090E020910001222F30E0220F331F216006
:10037000FC0120838CEB90E02CEB30E0F901208134
:100380002068FC012083809128018F5F80932801E1
:1003900089EB90E0FC018081883149F48BEB90E09F
:1003A000FC018081898381E091E00E940A040000C1
:1003B00061960FB6F894DEBF0FBECDBFDF91CF912F
:1003C000FF91EF91BF91AF919F918F917F916F912D
:1003D0005F914F913F912F910F9000925F000F908E
:1003E0001F901895CF93DF93CDB7DEB76C970FB6FC
:1003F000F894DEBF0FBECDBF84E690E024E630E087
:10040000F90120812160FC01208384E690E024E64C
:1004100030E0F90120812F77FC01208384E690E011
:1004200024E630E0F90120812460FC01208384E689
:1004300090E024E630E0F90120812062FC01208375
:1004400084E690E024E630E0F90120812860FC0198
:10045000208384E690E024E630E0F90120812064E6
:10046000FC01208384E690E024E630E0F90120815D
:100470002D7FFC01208384E290E024E230E0F9014A
:1004800020812062FC01208385E290E025E230E0BB
:10049000F90120812F7DFC01208387E090E00E94FC
:1004A00052030E9453008FE590E02FE530E0F90100
:1004B00020812068FC01208380E191E00E940A04F1
:1004C00080E090E0A0E2B1E48D839E83AF83B887A3
:1004D00020E030E04AE755E46D817E818F81988588
:1004E0000E941105DC01CB0189879A87AB87BC8705
:1004F00020E030E040E85FE369857A858B859C8564
:100500000E948B0488232CF481E090E09E878D87E5
:100510003FC020E03FEF4FE757E469857A858B8540
:100520009C850E940C0518164CF520E030E040E256
:1005300051E46D817E818F8198850E941105DC01D7
:10054000CB01BC01CD010E949004DC01CB019E8750
:100550008D870FC080E991E0988B8F878F85988970
:100560000197F1F7988B8F878D859E8501979E87E0
:100570008D878D859E85892B69F714C069857A855D
:100580008B859C850E949004DC01CB019E878D8722
:100590008D859E859A8B898B89899A890197F1F738
:1005A0009A8B898B88E60E94CC0085E290E025E258
:1005B00030E0F901308120E22327FC01208380E034
:1005C00090E0AAE7B4E489839A83AB83BC8320E0FC
:1005D00030E04AE755E469817A818B819C810E94F1
:1005E0001105DC01CB018B8B9C8BAD8BBE8B20E08E
:1005F00030E040E85FE36B897C898D899E890E94A9
:100600008B0488232CF481E090E0988F8F8B3FC07F
:1006100020E03FEF4FE757E46B897C898D899E8905
:100620000E940C0518164CF520E030E040E251E441
:1006300069817A818B819C810E941105DC01CB014B
:10064000BC01CD010E949004DC01CB01988F8F8BFF
:100650000FC080E991E09A8F898F898D9A8D0197DB
:10066000F1F79A8F898F8F89988D0197988F8F8B4B
:100670008F89988D892B69F714C06B897C898D8946
:100680009E890E949004DC01CB01988F8F8B8F890B
:10069000988D9C8F8B8F8B8D9C8D0197F1F79C8F04
:1006A0008B8F83CFCF93DF9300D0CDB7DEB79A8304
:1006B000898389819A8101969A83898385EC90E068
:1006C00029813A81232F3327FC01208384EC90E099
:1006D0002981FC01208380EC90E020EC30E0F901DE
:1006E00020812E7FFC01208380EC90E020EC30E024
:1006F000F90120812D7FFC01208380EC90E020EC2B
:1007000030E0F90120812F7BFC01208381EC90E017
:1007100021EC30E0F90120812B7FFC01208381EC6A
:1007200090E021EC30E0F90120812F7EFC01208354
:1007300081EC90E021EC30E0F90120812062FC01A5
:10074000208381EC90E021EC30E0F90120812064ED
:10075000FC01208381EC90E021EC30E0F901208164
:100760002F77FC01208382EC90E022EC30E0F9014D
:1007700020812E7FFC01208381EC90E021EC30E091
:10078000F90120812260FC01208381EC90E021ECC2
:1007900030E0F90120812460FC01208381EC90E0AD
:1007A00021EC30E0F9012081277FFC01208381ECDE
:1007B00090E021EC30E0F90120812F7EFC012083C4
:1007C00081EC90E021EC30E0F90120812062FC0115
:1007D000208381EC90E021EC30E0F90120812F7B37
:1007E000FC01208381EC90E021EC30E0F9012081D4
:1007F0002F77FC01208381EC90E021EC30E0F901BF
:1008000020812860FC01208300000F900F90DF9171
:10081000CF910895CF93DF9300D0CDB7DEB79A8301
:10082000898389819A8190932A01809329018091FB
:10083000290190912A010E94A60580932B0181EC49
:1008400090E021EC30E0F90120812062FC0120835E
:1008500000000F900F90DF91CF9108951F920F929B
:1008600000905F000F9211242F933F934F935F935B
:100870008F939F93EF93FF93CF93DF93CDB7DEB723
:1008800090912C0180912B019817B0F486EC90E0A8
:100890004091290150912A0120912C01222F30E012
:1008A000240F351FF9012081FC01208380912C0148
:1008B0008F5F80932C010BC081EC90E021EC30E045
:1008C000F90120812F7DFC01208310922C01000072
:1008D000DF91CF91FF91EF919F918F915F914F9118
:1008E0003F912F910F9000925F000F901F901895ED
:1008F0001F920F9200905F000F921124CF93DF930D
:10090000CDB7DEB70000DF91CF910F9000925F006E
:100910000F901F9018950E94BF0408F481E008957D
:100920000E94EB0488F09F5798F0B92F9927B75190
:10093000B0F0E1F0660F771F881F991F1AF0BA9583
:10094000C9F714C0B13091F00E940505B1E00895D7
:100950000C940505672F782F8827B85F39F0B93FC9
:10096000CCF3869577956795B395D9F73EF4909536
:100970008095709561957F4F8F4F9F4F0895990F88
:100980000008550FAA0BE0E8FEEF16161706E80759
:10099000F907C0F012161306E407F50798F0621B7A
:1009A000730B840B950B39F40A2661F0232B242B4F
:1009B000252B21F408950A2609F4A140A6958FEF6E
:1009C000811D811D089557FD9058440F551F59F002
:1009D0005F3F71F04795880F97FB991F61F09F3F2C
:1009E00079F087950895121613061406551FF2CF55
:1009F0004695F1DF08C0161617061806991FF1CFA5
:100A000086957105610508940895E894BB276627CB
:100A10007727CB0197F908950E94BF0408F48FEF60
:100A200008950E9424050C9495050E94870538F0CE
:100A30000E948E0520F0952311F00C947E050C94F5
:100A4000840511240C9406050E94E30470F3959F1D
:100A5000C1F3950F50E0551F629FF001729FBB27B5
:100A6000F00DB11D639FAA27F00DB11DAA1F649F51
:100A70006627B00DA11D661F829F2227B00DA11D04
:100A8000621F739FB00DA11D621F839FA00D611D8A
:100A9000221F749F3327A00D611D231F849F600DAB
:100AA000211D822F762F6A2F11249F5750409AF0D4
:100AB000F1F088234AF0EE0FFF1FBB1F661F771F60
:100AC000881F91505040A9F79E3F510580F00C942B
:100AD0007E050C9406055F3FE4F3983ED4F38695BB
:100AE00077956795B795F795E7959F5FC1F7FE2BCB
:100AF000880F911D9695879597F9089597F99F67A7
:100B000080E870E060E008959FEF80EC0895002495
:100B10000A941616170618060906089500240A9462
:100B200012161306140605060895092E0394000CE8
:100B300011F4882352F0BB0F40F4BF2B11F460FF77
:100B400004C06F5F7F4F8F4F9F4F0895FC0101904E
:100B50000020E9F7809590958E0F9F1F0895F894D7
:020B6000FFCFC5
:100B6200FF427974652052656365697665640A009F
:100B720053657269616C2054657374204D6573739B
:080B82006167652E2E2E0A00AA
:00000001FF
