:100000000C9434000C943E000C943E000C943E0082
:100010000C943E000C943E000C943E000C943E0068
:100020000C943E000C943E000C943E000C943E0058
:100030000C943E000C943E000C943E000C943E0048
:100040000C943E000C943E000C943E000C943E0038
:100050000C943E000C943E000C943E000C943E0028
:100060000C943E000C943E0011241FBECFEFD8E04C
:10007000DEBFCDBF0E9440000C9433020C94000000
:10008000CF93DF93CDB7DEB72E970FB6F894DEBFD0
:100090000FBECDBF84E690E024E630E0F901208178
:1000A0002160FC01208384E690E024E630E0F90141
:1000B00020812F77FC01208384E690E024E630E065
:1000C000F90120812460FC01208384E690E024E68D
:1000D00030E0F90120812062FC01208384E690E079
:1000E00024E630E0F90120812860FC01208384E6C9
:1000F00090E024E630E0F90120812064FC012083B7
:1001000084E690E024E630E0F90120812260FC01E1
:10011000208384E290E024E230E0F9012081206233
:10012000FC01208385E290E025E230E0F9012081A6
:100130002F7DFC01208385E290E025E230E0F9018B
:10014000308120E22327FC01208380E090E0AAE7B1
:10015000B4E489839A83AB83BC8320E030E04AE730
:1001600055E469817A818B819C810E949E01DC012A
:10017000CB018D839E83AF83B88720E030E040E8D9
:100180005FE36D817E818F8198850E9418018823AD
:100190002CF481E090E09A8789873FC020E03FEF10
:1001A0004FE757E46D817E818F8198850E94990188
:1001B00018164CF520E030E040E251E469817A8184
:1001C0008B819C810E949E01DC01CB01BC01CD0191
:1001D0000E941D01DC01CB019A8789870FC080E94D
:1001E00091E09C878B878B859C850197F1F79C8795
:1001F0008B8789859A8501979A87898789859A85CA
:10020000892B69F714C06D817E818F8198850E944A
:100210001D01DC01CB019A87898789859A859E8794
:100220008D878D859E850197F1F79E878D8783CF7A
:100230000E944C0108F481E008950E94780188F042
:100240009F5798F0B92F9927B751B0F0E1F0660F9A
:10025000771F881F991F1AF0BA95C9F714C0B130DB
:1002600091F00E949201B1E008950C949201672FE1
:10027000782F8827B85F39F0B93FCCF3869577950A
:100280006795B395D9F73EF49095809570956195F3
:100290007F4F8F4F9F4F0895990F0008550FAA0B5E
:1002A000E0E8FEEF16161706E807F907C0F0121689
:1002B0001306E407F50798F0621B730B840B950B8C
:1002C00039F40A2661F0232B242B252B21F40895E1
:1002D0000A2609F4A140A6958FEF811D811D08957E
:1002E00057FD9058440F551F59F05F3F71F04795E7
:1002F000880F97FB991F61F09F3F79F087950895CC
:10030000121613061406551FF2CF4695F1DF08C0EA
:10031000161617061806991FF1CF86957105610507
:1003200008940895E894BB2766277727CB0197F9AF
:1003300008950E944C0108F48FEF08950E94B101C6
:100340000C9422020E94140238F00E941B0220F03A
:10035000952311F00C940B020C94110211240C94AF
:1003600093010E94700170F3959FC1F3950F50E0C7
:10037000551F629FF001729FBB27F00DB11D639F57
:10038000AA27F00DB11DAA1F649F6627B00DA11DFD
:10039000661F829F2227B00DA11D621F739FB00DA3
:1003A000A11D621F839FA00D611D221F749F332713
:1003B000A00D611D231F849F600D211D822F762FAC
:1003C0006A2F11249F5750409AF0F1F088234AF089
:1003D000EE0FFF1FBB1F661F771F881F91505040F5
:1003E000A9F79E3F510580F00C940B020C949301E9
:1003F0005F3FE4F3983ED4F3869577956795B7957C
:10040000F795E7959F5FC1F7FE2B880F911D969595
:10041000879597F9089597F99F6780E870E060E005
:1004200008959FEF80EC089500240A94161617068D
:1004300018060906089500240A94121613061406D5
:1004400005060895092E0394000C11F4882352F038
:10045000BB0F40F4BF2B11F460FF04C06F5F7F4FF0
:0A0460008F4F9F4F0895F894FFCFCF
:00000001FF
