:100000000C9434000C9451000C9451000C94510049
:100010000C9451000C9451000C9451000C9451001C
:100020000C9451000C9451000C9451000C9451000C
:100030000C9451000C9451000C9451000C945100FC
:100040000C9451000C9451000C9451000C94E50454
:100050000C9430050C9451000C9451000C945100F8
:100060000C945E010C94510011241FBECFEFD8E018
:10007000DEBFCDBF11E0A0E0B1E0E0ECFCE002C0EB
:1000800005900D92A432B107D9F721E0A4E2B1E0C6
:1000900001C01D92AF34B207E1F70E9495020C94A3
:1000A0005E060C940000CF93DF93CDB7DEB7629766
:1000B0000FB6F894DEBF0FBECDBF888B7A8B698BED
:1000C0008BE0E1E0F1E0DE01159601900D928A955A
:1000D000E1F789899A899A83898388898B838B81BF
:1000E0008C8389819A8101969A8389839C818DEC86
:1000F000989F812D11248695869586958C838C8179
:10010000882379F789819A81FC01108289819A81FB
:1001100001979A8389839B818DEC989F812D11246F
:10012000869586958695880F282F220F220F820F9D
:10013000F92FF81B8F2F882F90E09E012B5F3F4FE8
:10014000820F931FFC01208189819A81FC01208309
:100150009B818DEC989F812D11248695869586959F
:100160008B838B81882391F689899A8962960FB651
:10017000F894DEBF0FBECDBFDF91CF910895CF932E
:10018000DF93CDB7DEB788EB90E028E7FC01208352
:100190008CEB90E02CEB30E0F90120812E7FFC010C
:1001A00020838CEB90E02CEB30E0F90120812B7F59
:1001B000FC0120838CEB90E02CEB30E0F9012081F6
:1001C0002F7EFC0120838CEB90E02CEB30E0F901DA
:1001D00020812F7DFC0120838CEB90E02CEB30E024
:1001E000F90120812F7BFC0120838CEB90E02CEB2C
:1001F00030E0F90120812F77FC01208389EB90E02A
:1002000029EB30E0F90120812E7FFC01208389EB6E
:1002100090E029EB30E0F90120812D7FFC01208363
:100220008AEB90E02EEFFC0120838AEB90E02AEB32
:1002300030E0F90120812E7FFC0120838DEB90E0DE
:10024000FC0110828CEB90E02CEB30E0F901208176
:100250002460FC0120830000DF91CF910895CF93AB
:10026000DF931F92CDB7DEB789838CE391E0909343
:100270002701809326018CEB90E02CEB30E0F90114
:1002800020812160FC0120838CEB90E02CEB30E09E
:10029000F90120812062FC0120838CEB90E02CEBA3
:1002A00030E0F90120812068FC012083898180935E
:1002B000000100000F90DF91CF9108951F920F92DF
:1002C00000905F000F9211242F933F934F935F9301
:1002D0008F939F93EF93FF93CF93DF93CDB7DEB7C9
:1002E00089EB90E0FC0180818830B9F48BEB90E0E1
:1002F00020EDFC0120838CEB90E02CEB30E0F90149
:1003000020812F7DFC0120838CEB90E02CEB30E0F2
:10031000F90120812068FC01208389EB90E0FC0139
:100320008081883169F48BEB90E0FC0110828CEBCA
:1003300090E02CEB30E0F90120812068FC01208363
:1003400089EB90E0FC018081883291F48CEB90E0A5
:100350002CEB30E0F90120812062FC0120838CEB42
:1003600090E02CEB30E0F90120812068FC01208333
:1003700089EB90E0FC0180818031B9F48BEB90E057
:1003800021EDFC0120838CEB90E02CEB30E0F901B7
:1003900020812F7DFC0120838CEB90E02CEB30E062
:1003A000F90120812068FC01208389EB90E0FC01A9
:1003B0008081803491F48CEB90E02CEB30E0F901FB
:1003C00020812064FC0120838CEB90E02CEB30E05A
:1003D000F90120812068FC01208389EB90E0FC0179
:1003E0008081803509F058C08091260190912701C5
:1003F0009C018CE391E0A901481B590BCA0141976C
:10040000DCF480912601909127019C012F5F3F4FE2
:1004100030932701209326012BEB30E0F901208156
:10042000FC0120838CEB90E02CEB30E0F901208183
:100430002068FC01208330C0809126019091270123
:100440009C018CE391E0A901481B590BCA0141971B
:1004500019F58CEB90E02CEB30E0F90120812F7B3B
:10046000FC01208380912601909127019C012F5F40
:100470003F4F30932701209326012BEB30E0F90109
:100480002081FC0120838CEB90E02CEB30E0F90123
:1004900020812068FC01208389EB90E0FC018081B1
:1004A000883509F58091260190912701FC01108281
:1004B0008CEB90E02CEB30E0F90120812F7EFC01E9
:1004C00020838CEB90E02CEB30E0F90120812E7F33
:1004D000FC0120838CEB90E02CEB30E0F9012081D3
:1004E0002068FC0120830000DF91CF91FF91EF9104
:1004F0009F918F915F914F913F912F910F9000921B
:100500005F000F901F901895CF93DF93CDB7DEB7A4
:100510008CEB90E02CEB30E0F90120812B7FFC018B
:1005200020830000DF91CF910895CF93DF93CDB763
:10053000DEB76F970FB6F894DEBF0FBECDBF84E66F
:1005400090E024E630E0F90120812160FC01208365
:1005500084E690E024E630E0F90120812F77FC0169
:10056000208384E690E024E630E0F90120812460D5
:10057000FC01208384E690E024E630E0F90120814C
:100580002062FC01208384E690E024E630E0F9015B
:1005900020812860FC01208384E690E024E630E09E
:1005A000F90120812064FC01208384E690E024E6A8
:1005B00030E0F90120812D7FFC01208384E290E06E
:1005C00024E230E0F90120812062FC01208385E2F1
:1005D00090E025E230E0F90120812F7DFC012083AD
:1005E00087E090E00E9411048FE590E02FE530E075
:1005F000F90120812068FC0120838CE091E00E94B9
:10060000C90480E090E0A0EAB0E48D839E83AF83CC
:10061000B88720E030E04AE755E46D817E818F8124
:1006200098850E94C905DC01CB0189879A87AB8731
:10063000BC8720E030E040E85FE369857A858B8500
:100640009C850E94430588232CF481E090E09E87DE
:100650008D873FC020E03FEF4FE757E469857A85FB
:100660008B859C850E94C40518164CF520E030E06F
:1006700040E251E46D817E818F8198850E94C90599
:10068000DC01CB01BC01CD010E944805DC01CB019E
:100690009E878D870FC080E991E0988B8F878F852B
:1006A00098890197F1F7988B8F878D859E850197A3
:1006B0009E878D878D859E85892B69F714C06985F6
:1006C0007A858B859C850E944805DC01CB019E873D
:1006D0008D878D859E859A8B898B89899A890197CB
:1006E000F1F79A8B898B85E290E025E230E0F90101
:1006F000308120E22327FC0120830E94BF0088E68E
:100700000E942F0180E090E4ACE9B5E489839A83EC
:10071000AB83BC8320E030E04AE755E469817A810D
:100720008B819C810E94C905DC01CB018B8B9C8B4A
:10073000AD8BBE8B20E030E040E85FE36B897C89C5
:100740008D899E890E94430588232CF481E090E0E6
:10075000988F8F8B3FC020E03FEF4FE757E46B89C6
:100760007C898D899E890E94C40518164CF520E06D
:1007700030E040E251E469817A818B819C810E9462
:10078000C905DC01CB01BC01CD010E944805DC019B
:10079000CB01988F8F8B0FC080E991E09A8F898F62
:1007A000898D9A8D0197F1F79A8F898F8F89988D0E
:1007B0000197988F8F8B8F89988D892B69F714C03B
:1007C0006B897C898D899E890E944805DC01CB015B
:1007D000988F8F8B8F89988D9C8F8B8F8B8D9C8D15
:1007E0000197F1F79C8F8B8F0E94840280913C01CE
:1007F00082958F7068E271E00E9453008091280119
:100800008D8F80913C018F7068E271E00E945300EF
:10081000809128018E8F1F8ECE014D960E94C904B3
:1008200062CFCF93DF9300D0CDB7DEB79A838983B1
:1008300089819A8101969A83898385EC90E0298148
:100840003A81232F3327FC01208384EC90E0298117
:10085000FC01208380EC90E020EC30E0F901208165
:100860002E7FFC01208380EC90E020EC30E0F90149
:1008700020812D7FFC01208380EC90E020EC30E093
:10088000F90120812F7BFC01208381EC90E021EC99
:1008900030E0F90120812B7FFC01208381EC90E086
:1008A00021EC30E0F90120812F7EFC01208381ECD6
:1008B00090E021EC30E0F90120812062FC012083EE
:1008C00081EC90E021EC30E0F90120812064FC0112
:1008D000208381EC90E021EC30E0F90120812F773A
:1008E000FC01208382EC90E022EC30E0F9012081D1
:1008F0002E7FFC01208381EC90E021EC30E0F901B7
:1009000020812260FC01208381EC90E021EC30E02A
:10091000F90120812460FC01208381EC90E021EC2E
:1009200030E0F9012081277FFC01208381EC90E0F9
:1009300021EC30E0F90120812F7EFC01208381EC45
:1009400090E021EC30E0F90120812062FC0120835D
:1009500081EC90E021EC30E0F90120812F7BFC015B
:10096000208381EC90E021EC30E0F90120812F77A9
:10097000FC01208381EC90E021EC30E0F901208142
:100980002860FC01208300000F900F90DF91CF9131
:100990000895CF93DF9300D0CDB7DEB79A838983D4
:1009A00089819A81909325018093240181EC90E0C4
:1009B00021EC30E0F90120812062FC01208300005D
:1009C0000F900F90DF91CF9108951F920F9200909A
:1009D0005F000F9211242F933F934F935F938F9358
:1009E0009F93EF93FF93CF93DF93CDB7DEB78091C3
:1009F000240190912501FC018081882391F026EC4F
:100A000030E08091240190912501AC014F5F5F4F50
:100A10005093250140932401FC018081F9018083DA
:100A20000EC086EC90E02AE0FC01208381EC90E08F
:100A300021EC30E0F90120812F7DFC0120830000B2
:100A4000DF91CF91FF91EF919F918F915F914F91A6
:100A50003F912F910F9000925F000F901F9018957B
:100A60001F920F9200905F000F921124CF93DF939B
:100A7000CDB7DEB70000DF91CF910F9000925F00FD
:100A80000F901F9018950E94770508F481E0089553
:100A90000E94A30588F09F5798F0B92F9927B75166
:100AA000B0F0E1F0660F771F881F991F1AF0BA9512
:100AB000C9F714C0B13091F00E94BD05B1E00895AE
:100AC0000C94BD05672F782F8827B85F39F0B93FA0
:100AD000CCF3869577956795B395D9F73EF49095C5
:100AE0008095709561957F4F8F4F9F4F0895990F17
:100AF0000008550FAA0BE0E8FEEF16161706E807E8
:100B0000F907C0F012161306E407F50798F0621B08
:100B1000730B840B950B39F40A2661F0232B242BDD
:100B2000252B21F408950A2609F4A140A6958FEFFC
:100B3000811D811D089557FD9058440F551F59F090
:100B40005F3F71F04795880F97FB991F61F09F3FBA
:100B500079F087950895121613061406551FF2CFE3
:100B60004695F1DF08C0161617061806991FF1CF33
:100B700086957105610508940895E894BB2766275A
:100B80007727CB0197F908950E94770508F48FEF36
:100B900008950E94DC050C944D060E943F0638F033
:100BA0000E94460620F0952311F00C9436060C9412
:100BB0003C0611240C94BE050E949B0570F3959F82
:100BC000C1F3950F50E0551F629FF001729FBB2744
:100BD000F00DB11D639FAA27F00DB11DAA1F649FE0
:100BE0006627B00DA11D661F829F2227B00DA11D93
:100BF000621F739FB00DA11D621F839FA00D611D19
:100C0000221F749F3327A00D611D231F849F600D39
:100C1000211D822F762F6A2F11249F5750409AF062
:100C2000F1F088234AF0EE0FFF1FBB1F661F771FEE
:100C3000881F91505040A9F79E3F510580F00C94B9
:100C400036060C94BE055F3FE4F3983ED4F38695D8
:100C500077956795B795F795E7959F5FC1F7FE2B59
:100C6000880F911D9695879597F9089597F99F6735
:100C700080E870E060E008959FEF80EC0895002424
:100C80000A941616170618060906089500240A94F1
:100C900012161306140605060895092E0394000C77
:100CA00011F4882352F0BB0F40F4BF2B11F460FF06
:100CB00004C06F5F7F4F8F4F9F4F0895F894FFCF11
:100CC000FF30313233343536373839005365726985
:100CD000616C2054657374204D6573736167652E74
:040CE0002E2E0000B4
:00000001FF
