:100000000C9434000C9451000C9451000C94510049
:100010000C9451000C9451000C9451000C9451001C
:100020000C9451000C9451000C9451000C9451000C
:100030000C9451000C9451000C9451000C945100FC
:100040000C9451000C9451000C9451000C94FF0638
:100050000C944A070C9451000C9451000C945100DC
:100060000C942D020C94510011241FBECFEFD8E048
:10007000DEBFCDBF11E0A0E0B1E0EEE6F1E102C0ED
:1000800005900D92AC38B107D9F722E0ACE8B1E0A9
:1000900001C01D92A730B207E1F70E94A5040C949D
:1000A000B5080C940000CF93DF93CDB7DEB765970A
:1000B0000FB6F894DEBF0FBECDBF8B8B7D8B6C8BE4
:1000C00081E091E09D8B8C8B81E1E8E2F1E0DE0143
:1000D000129601900D928A95E1F78B8989838C891C
:1000E0009D8908962981222F30E02F703327AE0199
:1000F0004E5F5F4F240F351FF9012081FC012083E3
:10010000898182958F7089838C899D890796298141
:10011000222F30E02F703327AE014E5F5F4F240F48
:10012000351FF9012081FC0120838B8989838C890B
:100130009D899C01295E3F4F99818DEC989F812D6F
:100140001124869586958695880F482F440F440F75
:10015000840FF92FF81B8F2F882F90E0AE014E5F90
:100160005F4F840F951FFC018081F9018083998185
:100170008DEC989F812D112486958695869589838F
:100180008C899D899C012A5E3F4F99818DEC989FB7
:10019000812D1124869586958695880F482F440FCA
:1001A000440F840FF92FF81B8F2F882F90E0AE019A
:1001B0004E5F5F4F840F951FFC018081F9018083A2
:1001C00099818DEC989F812D112486958695869531
:1001D00089838C899D899C012B5E3F4F99818DEC91
:1001E000989F812D1124869586958695880F482F96
:1001F000440F440F840FF92FF81B8F2F882F90E0A6
:10020000AE014E5F5F4F840F951FFC018081F901A5
:1002100080838C899D8984962B89FC0120838C891D
:100220009D8965960FB6F894DEBF0FBECDBFDF91F6
:10023000CF9108950F931F93CF93DF93CDB7DEB780
:1002400063970FB6F894DEBF0FBECDBF998B888B36
:100250007B8B6A8B8BE0E9E3F1E0DE011596019080
:100260000D928A95E1F70A891B89888999899A8371
:10027000898389819A81992374F4C8018C010F5F65
:100280001F4F2DE2FC01208389819A8191958195F0
:1002900091099A83898389819A819C838B830F5FDB
:1002A0001F4F8B819C812AE030E0B9010E947207C8
:1002B000CB019C838B838B819C81892B81F7F801F7
:1002C00010820150110989819A812AE030E0B90138
:1002D0000E9472079C01CE010596820F931FFC01BC
:1002E0008081F801808389819A812AE030E0B90118
:1002F0000E947207CB019A83898389819A81892B15
:1003000001F78A899B8963960FB6F894DEBF0FBE0A
:10031000CDBFDF91CF911F910F910895CF93DF93C0
:10032000CDB7DEB788EB90E028E7FC0120838CEBAB
:1003300090E02CEB30E0F90120812E7FFC0120833E
:100340008CEB90E02CEB30E0F90120812B7FFC015D
:1003500020838CEB90E02CEB30E0F90120812F7EA4
:10036000FC0120838CEB90E02CEB30E0F901208144
:100370002F7DFC0120838CEB90E02CEB30E0F90129
:1003800020812F7BFC0120838CEB90E02CEB30E074
:10039000F90120812F77FC01208389EB90E029EB84
:1003A00030E0F90120812E7FFC01208389EB90E071
:1003B00029EB30E0F90120812D7FFC0120838AEBBD
:1003C00090E02EEFFC0120838AEB90E02AEB30E0F6
:1003D000F90120812E7FFC0120838DEB90E0FC0150
:1003E00010828CEB90E02CEB30E0F901208124604E
:1003F000FC0120830000DF91CF910895CF93DF931C
:100400001F92CDB7DEB7898384EF91E09093F3011B
:100410008093F2018CEB90E02CEB30E0F90120812D
:100420002160FC0120838CEB90E02CEB30E0F901A3
:1004300020812062FC0120838CEB90E02CEB30E0EB
:10044000F90120812068FC012083898180930001CB
:1004500000000F90DF91CF9108951F920F920090AE
:100460005F000F9211242F933F934F935F936F93ED
:100470007F938F939F93AF93BF93EF93FF93CF930C
:10048000DF93CDB7DEB76E97DEBFCDBF89EB90E0CF
:10049000FC01208189819A81BC01822F0E94530036
:1004A0000E94C1068CEB90E02CEB30E0F90120813A
:1004B0002E7FFC01208380E090E0AAEFB4E48F83DC
:1004C0009887A987BA8720E030E04AE755E46F8132
:1004D000788589859A850E942008DC01CB018B876D
:1004E0009C87AD87BE8720E030E040E85FE36B8506
:1004F0007C858D859E850E949A0788232CF481E057
:1005000090E0988B8F873FC020E03FEF4FE757E4A4
:100510006B857C858D859E850E941B0818164CF581
:1005200020E030E040E251E46F81788589859A854A
:100530000E942008DC01CB01BC01CD010E949F0775
:10054000DC01CB01988B8F870FC080E991E09A8BFB
:10055000898B89899A890197F1F79A8B898B8F8585
:1005600098890197988B8F878F859889892B69F750
:1005700014C06B857C858D859E850E949F07DC015C
:10058000CB01988B8F878F8598899C8B8B8B8B89E0
:100590009C890197F1F79C8B8B8B8CEB90E02CEB7B
:1005A00030E0F90120812160FC01208389EB90E09B
:1005B000FC0180818830E9F484E491E00E94C10666
:1005C0008BEB90E020910001220FFC0120838CEB4B
:1005D00090E02CEB30E0F90120812F7DFC0120839D
:1005E0008CEB90E02CEB30E0F90120812068FC01DD
:1005F000208389EB90E0FC018081883109F083C081
:100600008BE491E00E94C10680E090E0A8ECB2E4A7
:100610008B839C83AD83BE8320E030E04AE755E4C2
:100620006B817C818D819E810E942008DC01CB0141
:100630008D8B9E8BAF8BB88F20E030E040E85FE37E
:100640006D897E898F89988D0E949A0788232CF462
:1006500081E090E09A8F898F3FC020E03FEF4FE725
:1006600057E46D897E898F89988D0E941B08181622
:100670004CF520E030E040E251E46B817C818D81DB
:100680009E810E942008DC01CB01BC01CD010E94AB
:100690009F07DC01CB019A8F898F0FC080E991E021
:1006A0009C8F8B8F8B8D9C8D0197F1F79C8F8B8FFF
:1006B000898D9A8D01979A8F898F898D9A8D892B33
:1006C00069F714C06D897E898F89988D0E949F0774
:1006D000DC01CB019A8F898F898D9A8D9E8F8D8FAA
:1006E0008D8D9E8D0197F1F79E8F8D8F8BEB90E016
:1006F000FC0110828CEB90E02CEB30E0F9012081C2
:100700002068FC01208389EB90E0FC018081883225
:10071000B1F482E591E00E94C1068CEB90E02CEBF5
:1007200030E0F90120812062FC0120838CEB90E015
:100730002CEB30E0F90120812068FC01208389EB5B
:1007400090E0FC018081803109F589E591E00E940B
:10075000C1068BEB90E020910001222F30E0220FA8
:10076000331F2160FC0120838CEB90E02CEB30E008
:10077000F90120812F7DFC0120838CEB90E02CEB94
:1007800030E0F90120812068FC01208389EB90E0B2
:10079000FC0180818034B1F480E691E00E94C106C2
:1007A0008CEB90E02CEB30E0F90120812064FC011F
:1007B00020838CEB90E02CEB30E0F9012081206865
:1007C000FC01208389EB90E0FC018081803509F0F9
:1007D00060C08091F2019091F3019C0184EF91E05F
:1007E000A901481B590BCA014197FCF487E691E027
:1007F0000E94C1068091F2019091F3019C012F5F4C
:100800003F4F3093F3012093F2012BEB30E0F901DD
:100810002081FC0120838CEB90E02CEB30E0F9018F
:1008200020812068FC01208334C08091F2019091E6
:10083000F3019C0184EF91E0A901481B590BCA0107
:10084000419739F58EE691E00E94C1068CEB90E06D
:100850002CEB30E0F90120812F7BFC01208380917B
:10086000F2019091F3019C012F5F3F4F3093F30110
:100870002093F2012BEB30E0F9012081FC01208371
:100880008CEB90E02CEB30E0F90120812068FC013A
:10089000208389EB90E0FC018081883509F5809107
:1008A000F2019091F301FC0110828CEB90E02CEBB3
:1008B00030E0F90120812F7EFC0120838CEB90E059
:1008C0002CEB30E0F90120812E7FFC0120838CEBA2
:1008D00090E02CEB30E0F90120812068FC012083BE
:1008E0008CEB90E02CEB30E0F90120812E7FFC01B5
:1008F000208300006E960FB6F894DEBF0FBECDBF0A
:10090000DF91CF91FF91EF91BF91AF919F918F9127
:100910007F916F915F914F913F912F910F90009236
:100920005F000F901F901895CF93DF93CDB7DEB780
:100930008CEB90E02CEB30E0F90120812B7FFC0167
:1009400020830000DF91CF910895CF93DF93CDB73F
:10095000DEB76C970FB6F894DEBF0FBECDBF84E64E
:1009600090E024E630E0F90120812160FC01208341
:1009700084E690E024E630E0F90120812F77FC0145
:10098000208384E690E024E630E0F90120812460B1
:10099000FC01208384E690E024E630E0F901208128
:1009A0002062FC01208384E690E024E630E0F90137
:1009B00020812860FC01208384E690E024E630E07A
:1009C000F90120812064FC01208384E690E024E684
:1009D00030E0F90120812D7FFC01208384E290E04A
:1009E00024E230E0F90120812062FC01208385E2CD
:1009F00090E025E230E0F90120812F7DFC01208389
:100A000087E090E00E9405068FE590E02FE530E05A
:100A1000F90120812068FC01208385E791E00E9494
:100A2000C10680E090E0A0EAB0E48D839E83AF83AE
:100A3000B88720E030E04AE755E46D817E818F8100
:100A400098850E942008DC01CB0189879A87AB87B3
:100A5000BC8720E030E040E85FE369857A858B85DC
:100A60009C850E949A0788232CF481E090E09E8761
:100A70008D873FC020E03FEF4FE757E469857A85D7
:100A80008B859C850E941B0818164CF520E030E0F1
:100A900040E251E46D817E818F8198850E9420081B
:100AA000DC01CB01BC01CD010E949F07DC01CB0121
:100AB0009E878D870FC080E991E0988B8F878F8507
:100AC00098890197F1F7988B8F878D859E8501977F
:100AD0009E878D878D859E85892B69F714C06985D2
:100AE0007A858B859C850E949F07DC01CB019E87C0
:100AF0008D878D859E859A8B898B89899A890197A7
:100B0000F1F79A8B898B0E948E0188E60E94FE0184
:100B100085E290E025E230E0F901308120E22327F0
:100B2000FC01208380E090E0AAE7B4E489839A8303
:100B3000AB83BC8320E030E04AE755E469817A81E9
:100B40008B819C810E942008DC01CB018B8B9C8BCC
:100B5000AD8BBE8B20E030E040E85FE36B897C89A1
:100B60008D899E890E949A0788232CF481E090E069
:100B7000988F8F8B3FC020E03FEF4FE757E46B89A2
:100B80007C898D899E890E941B0818164CF520E0EF
:100B900030E040E251E469817A818B819C810E943E
:100BA0002008DC01CB01BC01CD010E949F07DC01C4
:100BB000CB01988F8F8B0FC080E991E09A8F898F3E
:100BC000898D9A8D0197F1F79A8F898F8F89988DEA
:100BD0000197988F8F8B8F89988D892B69F714C017
:100BE0006B897C898D899E890E949F07DC01CB01DE
:100BF000988F8F8B8F89988D9C8F8B8F8B8D9C8DF1
:100C00000197F1F79C8F8B8F83CFCF93DF9300D029
:100C1000CDB7DEB79A83898389819A8101969A83B9
:100C2000898385EC90E029813A81232F3327FC01C9
:100C3000208384EC90E02981FC01208380EC90E00B
:100C400020EC30E0F90120812E7FFC01208380EC34
:100C500090E020EC30E0F90120812D7FFC01208321
:100C600080EC90E020EC30E0F90120812F7BFC014A
:100C7000208381EC90E021EC30E0F90120812B7F92
:100C8000FC01208381EC90E021EC30E0F90120812F
:100C90002F7EFC01208381EC90E021EC30E0F90113
:100CA00020812F7DFC01208381EC90E021EC30E05D
:100CB000F90120812F7BFC01208381EC90E021EC65
:100CC00030E0F90120812F77FC01208382EC90E055
:100CD00022EC30E0F90120812E7FFC01208381ECA1
:100CE00090E021EC30E0F90120812260FC012083BA
:100CF00081EC90E021EC30E0F90120812460FC01DE
:100D0000208381EC90E021EC30E0F9012081277F05
:100D1000FC01208381EC90E021EC30E0F90120819E
:100D20002F7EFC01208381EC90E021EC30E0F90182
:100D300020812062FC01208381EC90E021EC30E0F6
:100D4000F90120812F7BFC01208381EC90E021ECD4
:100D500030E0F90120812F77FC01208386EC90E0C0
:100D6000FC01108281EC90E021EC30E0F90120815F
:100D70002860FC01208300000F900F90DF91CF913D
:100D800008951F93CF93DF93CDB7DEB710E00FC068
:100D9000212F11E0120F422F50E09C01C901019652
:100DA000F90160819A0124573E4FF9016083FC01EB
:100DB0002081222369F7812F90E084579E4F2AE0FB
:100DC000FC0120838CE891E09093F1018093F00185
:100DD00081EC90E021EC30E0F90120812062FC01FF
:100DE000208381EC90E021EC30E0F9012081206447
:100DF000FC0120830000DF91CF911F9108951F9285
:100E00000F9200905F000F9211242F933F934F9306
:100E10005F938F939F93EF93FF93CF93DF93CDB720
:100E2000DEB78091F0019091F101FC0180818A3060
:100E300091F026EC30E08091F0019091F101AC014D
:100E40004F5F5F4F5093F1014093F001FC018081AF
:100E5000F90180830EC086EC90E02AE0FC0120833B
:100E600081EC90E021EC30E0F90120812F7DFC0144
:100E700020830000DF91CF91FF91EF919F918F919F
:100E80005F914F913F912F910F9000925F000F90D3
:100E90001F9018951F920F9200905F000F921124DF
:100EA0002F933F938F939F93EF93FF93CF93DF9372
:100EB000CDB7DEB781EC90E021EC30E0F901208184
:100EC0002F7BFC0120830000DF91CF91FF91EF91F8
:100ED0009F918F913F912F910F9000925F000F9003
:100EE0001F90189597FB072E16F4009407D077FDF6
:100EF00009D00E94860707FC05D03EF490958195A5
:100F00009F4F0895709561957F4F0895AA1BBB1B55
:100F100051E107C0AA1FBB1FA617B70710F0A61BF9
:100F2000B70B881F991F5A95A9F780959095BC011A
:100F3000CD0108950E94CE0708F481E008950E9433
:100F4000FA0788F09F5798F0B92F9927B751B0F05A
:100F5000E1F0660F771F881F991F1AF0BA95C9F73D
:100F600014C0B13091F00E941408B1E008950C94BF
:100F70001408672F782F8827B85F39F0B93FCCF372
:100F8000869577956795B395D9F73EF490958095BA
:100F9000709561957F4F8F4F9F4F0895990F00086F
:100FA000550FAA0BE0E8FEEF16161706E807F9073B
:100FB000C0F012161306E407F50798F0621B730BD6
:100FC000840B950B39F40A2661F0232B242B252B57
:100FD00021F408950A2609F4A140A6958FEF811DFA
:100FE000811D089557FD9058440F551F59F05F3FDC
:100FF00071F04795880F97FB991F61F09F3F79F03B
:1010000087950895121613061406551FF2CF4695BC
:10101000F1DF08C0161617061806991FF1CF86953E
:101020007105610508940895E894BB276627772722
:10103000CB0197F908950E94CE0708F48FEF089529
:101040000E9433080C94A4080E94960838F00E946D
:101050009D0820F0952311F00C948D080C949308B2
:1010600011240C9415080E94F20770F3959FC1F3A8
:10107000950F50E0551F629FF001729FBB27F00D46
:10108000B11D639FAA27F00DB11DAA1F649F66279B
:10109000B00DA11D661F829F2227B00DA11D621FEA
:1010A000739FB00DA11D621F839FA00D611D221FA4
:1010B000749F3327A00D611D231F849F600D211D88
:1010C000822F762F6A2F11249F5750409AF0F1F00B
:1010D00088234AF0EE0FFF1FBB1F661F771F881F74
:1010E00091505040A9F79E3F510580F00C948D0817
:1010F0000C9415085F3FE4F3983ED4F386957795FA
:101100006795B795F795E7959F5FC1F7FE2B880F19
:10111000911D9695879597F9089597F99F6780E8AF
:1011200070E060E008959FEF80EC089500240A9439
:101130001616170618060906089500240A941216B2
:101140001306140605060895092E0394000C11F4E5
:10115000882352F0BB0F40F4BF2B11F460FF04C092
:0E1160006F5F7F4F8F4F9F4F0895F894FFCF22
:10116E00FF4865783A2030783030202020202055F6
:10117E005F496E743A2030303020202020204153B9
:10118E004349493A20300000303132333435363756
:10119E0038394142434445460030313233343536D6
:1011AE0037383900537465702031005374657020E0
:1011BE003200537465702033005374657020340010
:1011CE005374657020350053746570203600537467
:1011DE00657020370053657269616C2054657374B5
:0C11EE00204D6573736167652E2E2E0086
:00000001FF
