:100000000C9434000C9451000C9451000C94510049
:100010000C9451000C9451000C9451000C9451001C
:100020000C9451000C9451000C9451000C9451000C
:100030000C9451000C9451000C9451000C945100FC
:100040000C9451000C9451000C9451000C94C40673
:100050000C940F070C9451000C9451000C94510017
:100060000C9451000C94510011241FBECFEFD8E026
:10007000DEBFCDBF11E0A0E0B1E0E8EFF0E102C0EB
:1000800005900D92A439B107D9F722E0A4E9B1E0B7
:1000900001C01D92AF30B207E1F70E94B5030C9486
:1000A0007A080C940000CF93DF93CDB7DEB7659745
:1000B0000FB6F894DEBF0FBECDBF8B8B7D8B6C8BE4
:1000C00081E091E09D8B8C8B81E1E8E2F1E0DE0143
:1000D000129601900D928A95E1F78B8989838C891C
:1000E0009D8908962981222F30E02F703327AE0199
:1000F0004E5F5F4F240F351FF9012081FC012083E3
:10010000898182958F7089838C899D890796298141
:10011000222F30E02F703327AE014E5F5F4F240F48
:10012000351FF9012081FC0120838B8989838C890B
:100130009D899C01295E3F4F99818DEC989F812D6F
:100140001124869586958695880F482F440F440F75
:10015000840FF92FF81B8F2F882F90E0AE014E5F90
:100160005F4F840F951FFC018081F9018083998185
:100170008DEC989F812D112486958695869589838F
:100180008C899D899C012A5E3F4F99818DEC989FB7
:10019000812D1124869586958695880F482F440FCA
:1001A000440F840FF92FF81B8F2F882F90E0AE019A
:1001B0004E5F5F4F840F951FFC018081F9018083A2
:1001C00099818DEC989F812D112486958695869531
:1001D00089838C899D899C012B5E3F4F99818DEC91
:1001E000989F812D1124869586958695880F482F96
:1001F000440F440F840FF92FF81B8F2F882F90E0A6
:10020000AE014E5F5F4F840F951FFC018081F901A5
:1002100080838C899D8984962B89FC0120838C891D
:100220009D8965960FB6F894DEBF0FBECDBFDF91F6
:10023000CF9108950F931F93CF93DF93CDB7DEB780
:1002400063970FB6F894DEBF0FBECDBF998B888B36
:100250007B8B6A8B8BE0E9E3F1E0DE011596019080
:100260000D928A95E1F70A891B89888999899A8371
:10027000898389819A81992374F4C8018C010F5F65
:100280001F4F2DE2FC01208389819A8191958195F0
:1002900091099A83898389819A819C838B830F5FDB
:1002A0001F4F8B819C812AE030E0B9010E94370703
:1002B000CB019C838B838B819C81892B81F7F801F7
:1002C00010820150110989819A812AE030E0B90138
:1002D0000E9437079C01CE010596820F931FFC01F7
:1002E0008081F801808389819A812AE030E0B90118
:1002F0000E943707CB019A83898389819A81892B50
:1003000001F78A899B8963960FB6F894DEBF0FBE0A
:10031000CDBFDF91CF911F910F910895CF93DF93C0
:10032000CDB7DEB788EB90E028E7FC0120838CEBAB
:1003300090E02CEB30E0F90120812E7FFC0120833E
:100340008CEB90E02CEB30E0F90120812B7FFC015D
:1003500020838CEB90E02CEB30E0F90120812F7EA4
:10036000FC0120838CEB90E02CEB30E0F901208144
:100370002F7DFC0120838CEB90E02CEB30E0F90129
:1003800020812F7BFC0120838CEB90E02CEB30E074
:10039000F90120812F77FC01208389EB90E029EB84
:1003A00030E0F90120812E7FFC01208389EB90E071
:1003B00029EB30E0F90120812D7FFC0120838AEBBD
:1003C00090E02EEFFC0120838AEB90E02AEB30E0F6
:1003D000F90120812E7FFC0120838DEB90E0FC0150
:1003E00010828CEB90E02CEB30E0F901208124604E
:1003F000FC0120830000DF91CF910895CF93DF931C
:100400001F92CDB7DEB789838CEF91E09093FB010B
:100410008093FA018CEB90E02CEB30E0F901208125
:100420002062FC0120838CEB90E02CEB30E0F901A2
:1004300020812068FC0120838981809300010000D5
:100440000F90DF91CF910895CF93DF93CDB7DEB7B3
:1004500060970FB6F894DEBF0FBECDBF89EB90E07A
:10046000FC01208189819A81BC01822F0E94530066
:100470000E94860680E090E0A0E8B0E48B839C8335
:10048000AD83BE8320E030E04AE755E46B817C8198
:100490008D819E810E94E507DC01CB018F839887C7
:1004A000A987BA8720E030E040E85FE36F81788574
:1004B00089859A850E945F0788232CF481E090E06B
:1004C0009C878B873FC020E03FEF4FE757E46F8169
:1004D000788589859A850E94E00718164CF520E0FA
:1004E00030E040E251E46B817C818D819E810E94ED
:1004F000E507DC01CB01BC01CD010E946407DC01F2
:10050000CB019C878B870FC080E991E09E878D8708
:100510008D859E850197F1F79E878D878B859C85BC
:1005200001979C878B878B859C85892B69F714C0E5
:100530006F81788589859A850E946407DC01CB01EB
:100540009C878B878B859C85988B8F878F859889D7
:100550000197F1F7988B8F8789EB90E0FC01808100
:100560008830A1F484E491E00E9486068BEB90E051
:1005700020910001220FFC0120838CEB90E02CEBFA
:1005800030E0F90120812F7DFC01208389EB90E090
:10059000FC018081883141F48BE491E00E94860661
:1005A0008BEB90E0FC01108289EB90E0FC018081F4
:1005B000883269F482E591E00E9486068CEB90E037
:1005C0002CEB30E0F90120812062FC01208389EBD3
:1005D00090E0FC0180818031C1F489E591E00E94C6
:1005E00086068BEB90E020910001222F30E0220F55
:1005F000331F2160FC0120838CEB90E02CEB30E07A
:10060000F90120812F7DFC01208389EB90E0FC0122
:100610008081803469F480E691E00E9486068CEB4C
:1006200090E02CEB30E0F90120812064FC01208374
:1006300089EB90E0FC018081803509F04EC080910B
:10064000FA019091FB019C018CEF91E0A901481BFC
:10065000590BCA014197B4F487E691E00E948606DF
:100660008091FA019091FB019C012F5F3F4F3093E5
:10067000FB012093FA012BEB30E0F9012081FC0112
:1006800020832BC08091FA019091FB019C018CEF9B
:1006900091E0A901481B590BCA014197F1F48EE67C
:1006A00091E00E9486068CEB90E02CEB30E0F901A3
:1006B00020812F7BFC0120838091FA019091FB0126
:1006C0009C012F5F3F4F3093FB012093FA012BEBEE
:1006D00030E0F9012081FC01208389EB90E0FC01EE
:1006E00080818835F1F485E791E00E94860680914B
:1006F000FA019091FB01FC0110828CEB90E02CEB55
:1007000030E0F90120812061FC0120838CEB90E036
:100710002CEB30E0F90120812068FC01208381E08E
:100720000AC08CEB90E02CEB30E0F90120812068CE
:10073000FC01208380E060960FB6F894DEBF0FBE08
:10074000CDBFDF91CF910895CF93DF93CDB7DEB7C3
:100750008CEB90E02CEB30E0F90120812B7FFC0149
:1007600020830000DF91CF910895CF93DF93CDB721
:10077000DEB7AA970FB6F894DEBF0FBECDBF84E6F2
:1007800090E024E630E0F90120812160FC01208323
:1007900084E690E024E630E0F90120812F77FC0127
:1007A000208384E690E024E630E0F9012081246093
:1007B000FC01208384E690E024E630E0F90120810A
:1007C0002062FC01208384E690E024E630E0F90119
:1007D00020812860FC01208384E690E024E630E05C
:1007E000F90120812064FC01208384E690E024E666
:1007F00030E0F90120812D7FFC01208384E290E02C
:1008000024E230E0F90120812062FC01208385E2AE
:1008100090E025E230E0F90120812F7DFC0120836A
:1008200087E090E00E94CA050E948E018FE590E06B
:100830002FE530E0F90120812068FC0120838CE75E
:1008400091E00E94860680E090E0A0EAB0E489870B
:100850009A87AB87BC8720E030E04AE755E469859A
:100860007A858B859C850E94E507DC01CB018D870D
:100870009E87AF87B88B20E030E040E85FE36D856E
:100880007E858F8598890E945F0788232CF481E0FC
:1008900090E09A8B898B3FC020E03FEF4FE757E411
:1008A0006D857E858F8598890E94E00718164CF526
:1008B00020E030E040E251E469857A858B859C85B3
:1008C0000E94E507DC01CB01BC01CD010E94640759
:1008D000DC01CB019A8B898B0FC080E991E09C8B66
:1008E0008B8B8B899C890197F1F79C8B8B8B8989EA
:1008F0009A8901979A8B898B89899A89892B69F7BB
:1009000014C06D857E858F8598890E946407DC01FF
:10091000CB019A8B898B89899A899E8B8D8B8D8946
:100920009E890197F1F79E8B8D8B88E60E94FE01D0
:1009300085E290E025E230E0F901308120E22327D2
:10094000FC01208380E090E0A8E4B2E489839A83EC
:10095000AB83BC8320E030E04AE755E469817A81CB
:100960008B819C810E94E507DC01CB018F8B988FE6
:10097000A98FBA8F20E030E040E85FE36F89788D7F
:10098000898D9A8D0E945F0788232CF481E090E086
:100990009C8F8B8F3FC020E03FEF4FE757E46F897C
:1009A000788D898D9A8D0E94E00718164CF520E00D
:1009B00030E040E251E469817A818B819C810E9420
:1009C000E507DC01CB01BC01CD010E946407DC011D
:1009D000CB019C8F8B8F0FC080E991E09E8F8D8F14
:1009E0008D8D9E8D0197F1F79E8F8D8F8B8D9C8DB8
:1009F00001979C8F8B8F8B8D9C8D892B69F714C0F1
:100A00006F89788D898D9A8D0E946407DC01CB01F6
:100A10009C8F8B8F8B8D9C8D98A38F8F8F8D98A1A2
:100A20000197F1F798A38F8F8CEB90E0FC01808108
:100A300088230CF07DCF0E942402813009F078CF0A
:100A400088E60E94FE0180E090E0A0E8BFE38D838D
:100A50009E83AF83B88720E030E04AE755E46D819C
:100A60007E818F8198850E94E507DC01CB0189A3F7
:100A70009AA3ABA3BCA320E030E040E85FE369A108
:100A80007AA18BA19CA10E945F0788232CF481E0AE
:100A900090E09EA38DA33FC020E03FEF4FE757E4D7
:100AA00069A17AA18BA19CA10E94E00718164CF5C0
:100AB00020E030E040E251E46D817E818F819885B5
:100AC0000E94E507DC01CB01BC01CD010E94640757
:100AD000DC01CB019EA38DA30FC080E991E098A714
:100AE0008FA38FA198A50197F1F798A78FA38DA148
:100AF0009EA101979EA38DA38DA19EA1892B69F72D
:100B000014C069A17AA18BA19CA10E946407DC0199
:100B1000CB019EA38DA38DA19EA19AA789A789A58C
:100B20009AA50197F1F79AA789A70E94980500CF87
:100B3000CF93DF9300D000D000D0CDB7DEB7809147
:100B4000FC0182958F70882F90E09E012C5F3F4FB3
:100B5000B9010E941A018C8189838091FC01882F40
:100B600090E08F7099279E012C5F3F4FB9010E9442
:100B70001A018C818A831B82CE0101960E9486060F
:100B8000000026960FB6F894DEBF0FBECDBFDF91F2
:100B9000CF910895CF93DF9300D0CDB7DEB79A837E
:100BA000898389819A8101969A83898385EC90E073
:100BB00029813A81232F3327FC01208384EC90E0A4
:100BC0002981FC01208380EC90E020EC30E0F901E9
:100BD00020812E7FFC01208380EC90E020EC30E02F
:100BE000F90120812D7FFC01208380EC90E020EC36
:100BF00030E0F90120812F7BFC01208381EC90E023
:100C000021EC30E0F90120812B7FFC01208381EC75
:100C100090E021EC30E0F90120812F7EFC0120835F
:100C200081EC90E021EC30E0F90120812F7DFC0186
:100C3000208381EC90E021EC30E0F90120812F7BD2
:100C4000FC01208381EC90E021EC30E0F90120816F
:100C50002F77FC01208382EC90E022EC30E0F90158
:100C600020812E7FFC01208381EC90E021EC30E09C
:100C7000F90120812260FC01208381EC90E021ECCD
:100C800030E0F90120812460FC01208381EC90E0B8
:100C900021EC30E0F9012081277FFC01208381ECE9
:100CA00090E021EC30E0F90120812F7EFC012083CF
:100CB00081EC90E021EC30E0F90120812062FC0120
:100CC000208381EC90E021EC30E0F90120812F7B42
:100CD000FC01208381EC90E021EC30E0F9012081DF
:100CE0002F77FC01208386EC90E0FC01108281ECE0
:100CF00090E021EC30E0F90120812860FC012083A4
:100D000000000F900F90DF91CF9108951F93CF9324
:100D1000DF93CDB7DEB710E00FC0212F11E0120F27
:100D2000422F50E09C01C9010196F90160819A01AE
:100D30002C563E4FF9016083FC012081222369F784
:100D4000812F90E08C569E4F2AE0FC01208384E99D
:100D500091E09093F9018093F80181EC90E021EC0F
:100D600030E0F90120812062FC01208381EC90E0D9
:100D700021EC30E0F90120812064FC012083000097
:100D8000DF91CF911F9108951F920F9200905F0005
:100D90000F9211242F933F934F935F938F939F93C1
:100DA000EF93FF93CF93DF93CDB7DEB78091F80138
:100DB0009091F901FC0180818A3091F026EC30E0BD
:100DC0008091F8019091F901AC014F5F5F4F509312
:100DD000F9014093F801FC018081F90180830EC084
:100DE00086EC90E02AE0FC01208381EC90E021EC8D
:100DF00030E0F90120812F7DFC0120830000DF918C
:100E0000CF91FF91EF919F918F915F914F913F9182
:100E10002F910F9000925F000F901F9018951F92D6
:100E20000F9200905F000F9211242F933F938F93A6
:100E30009F93EF93FF93CF93DF93CDB7DEB781EC12
:100E400090E021EC30E0F90120812F7BFC01208330
:100E50000000DF91CF91FF91EF919F918F913F9192
:100E60002F910F9000925F000F901F90189597FBA5
:100E7000072E16F4009407D077FD09D00E944B0787
:100E800007FC05D03EF4909581959F4F089570958D
:100E900061957F4F0895AA1BBB1B51E107C0AA1F94
:100EA000BB1FA617B70710F0A61BB70B881F991F0B
:100EB0005A95A9F780959095BC01CD0108950E949F
:100EC000930708F481E008950E94BF0788F09F57B8
:100ED00098F0B92F9927B751B0F0E1F0660F771F5E
:100EE000881F991F1AF0BA95C9F714C0B13091F054
:100EF0000E94D907B1E008950C94D907672F782F85
:100F00008827B85F39F0B93FCCF386957795679518
:100F1000B395D9F73EF490958095709561957F4F84
:100F20008F4F9F4F0895990F0008550FAA0BE0E8C7
:100F3000FEEF16161706E807F907C0F0121613069B
:100F4000E407F50798F0621B730B840B950B39F4DB
:100F50000A2661F0232B242B252B21F408950A2641
:100F600009F4A140A6958FEF811D811D089557FDBD
:100F70009058440F551F59F05F3F71F04795880F07
:100F800097FB991F61F09F3F79F08795089512169E
:100F900013061406551FF2CF4695F1DF08C016164A
:100FA00017061806991FF1CF8695710561050894FB
:100FB0000895E894BB2766277727CB0197F9089512
:100FC0000E94930708F48FEF08950E94F8070C948D
:100FD00069080E945B0838F00E94620820F095239F
:100FE00011F00C9452080C94580811240C94DA0750
:100FF0000E94B70770F3959FC1F3950F50E0551FFE
:10100000629FF001729FBB27F00DB11D639FAA275D
:10101000F00DB11DAA1F649F6627B00DA11D661FAC
:10102000829F2227B00DA11D621F739FB00DA11DCD
:10103000621F839FA00D611D221F749F3327A00D87
:10104000611D231F849F600D211D822F762F6A2F23
:1010500011249F5750409AF0F1F088234AF0EE0F88
:10106000FF1FBB1F661F771F881F91505040A9F7B5
:101070009E3F510580F00C9452080C94DA075F3FB4
:10108000E4F3983ED4F3869577956795B795F795F1
:10109000E7959F5FC1F7FE2B880F911D9695879569
:1010A00097F9089597F99F6780E870E060E00895E8
:1010B0009FEF80EC089500240A9416161706180670
:1010C0000906089500240A9412161306140605064C
:1010D0000895092E0394000C11F4882352F0BB0FDD
:1010E00040F4BF2B11F460FF04C06F5F7F4F8F4F40
:0810F0009F4F0895F894FFCF13
:1010F800FF4865783A20307830302020202020556D
:101108005F496E743A20303030202020202041532F
:101118004349493A203000003031323334353637CC
:10112800383941424344454600303132333435364C
:101138003738390053746570203100537465702056
:101148003200537465702033005374657020340086
:1011580053746570203500537465702036005374DD
:1011680065702037005374657020380053657269C4
:10117800616C2054657374204D6573736167652EC7
:041188002E2E000007
:00000001FF
